:020000040800F2
:1000000000000820CD360008CB0C0008CD0C0008FD
:10001000CF0C0008D10C0008D30C00080000000031
:10002000000000000000000000000000D50C0008E7
:10003000D70C000800000000D90C0008DB0C0008F9
:100040001D3700081D3700081D3700081D37000840
:100050001D3700081D3700081D3700081D37000830
:100060001D3700081D3700081D3700081D37000820
:100070001D3700081D370008E50C00081D37000873
:100080001D3700081D3700081D3700081D37000800
:100090001D3700081D3700081D3700081D370008F0
:1000A0001D3700081D3700081D3700081D370008E0
:1000B000F50C00081D3700081D3700081D37000823
:1000C0001D3700081D3700081D3700081D370008C0
:1000D0001D3700081D3700081D3700081D370008B0
:1000E0001D3700081D3700081D3700081D370008A0
:1000F0001D3700081D3700081D3700081D37000890
:100100001D3700081D3700081D3700081D3700087F
:100110001D3700081D3700081D3700081D3700086F
:100120001D3700081D3700081D3700081D3700085F
:100130001D3700081D3700081D3700081D3700084F
:100140001D3700081D3700081D3700081D3700083F
:100150001D3700081D3700081D3700081D3700082F
:100160001D3700081D3700081D3700081D3700081F
:100170001D3700081D3700081D370008000000006B
:100180001D3700081D3700081D3700081D370008FF
:100190001D3700081D3700081D3700081D370008EF
:1001A0001D3700081D3700081D3700081D370008DF
:1001B0001D3700081D3700081D3700081D370008CF
:1001C0001D3700081D370008000000001D3700081B
:1001D0001D3700081D3700081D3700081D370008AF
:1001E0001D3700081D3700081D3700081D3700089F
:0801F0001D3700081D3700084F
:1002000010B5054C237833B9044B13B10448AFF350
:1002100000800123237010BDE801002000000000D1
:100220000464000808B5034B1BB103490348AFF34E
:10023000008008BD00000000EC01002004640008FC
:10024000034613F8012B002AFBD1181A0138704716
:1002500001F0FF01102A2BDB10F0070F08D010F877
:10026000013B013A8B422DD010F0070F42B3F6D17B
:10027000F0B441EA012141EA014122F007047FF094
:1002800000070023F0E80256083C85EA010586EAEB
:10029000010685FA47F5A3FA87F586FA47F6A5FA27
:1002A00087F68EB9EED1F0BC01F0FF0102F0070233
:1002B00032B110F8013B013A83EA010313B1F8D1DE
:1002C0000020704701387047002D06BF35460338BF
:1002D000073815F0010F07D1013015F4807F02BFF8
:1002E000013015F4C03F0130F0BC0138704700BF49
:1002F00053B94AB9002908BF00281CBF4FF0FF318D
:100300004FF0FF3000F074B9ADF1080C6DE904CE88
:1003100000F006F8DDF804E0DDE9022304B07047E0
:100320002DE9F047089D04468E46002B4DD18A42A8
:10033000944669D9B2FA82F252B101FA02F3C2F1DB
:10034000200120FA01F10CFA02FC41EA030E94406C
:100350004FEA1C48210CBEFBF8F61FFA8CF708FB8D
:1003600016E341EA034306FB07F199420AD91CEB65
:10037000030306F1FF3080F01F81994240F21C8197
:10038000023E63445B1AA4B2B3FBF8F008FB1033DF
:1003900044EA034400FB07F7A7420AD91CEB040414
:1003A00000F1FF3380F00A81A74240F207816444E4
:1003B000023840EA0640E41B00261DB1D440002369
:1003C000C5E900433146BDE8F0878B4209D9002DCD
:1003D00000F0EF800026C5E9000130463146BDE857
:1003E000F087B3FA83F6002E4AD18B4202D38242C1
:1003F00000F2F980841A61EB030301209E46002D70
:10040000E0D0C5E9004EDDE702B9FFDEB2FA82F2C4
:10041000002A40F09280A1EB0C014FEA1C471FFA22
:100420008CFE0126200CB1FBF7F307FB131140EA09
:1004300001410EFB03F0884208D91CEB010103F1D6
:10044000FF3802D2884200F2CB804346091AA4B298
:10045000B1FBF7F007FB101144EA01440EFB00FE6C
:10046000A64508D91CEB040400F1FF3102D2A645D1
:1004700000F2BB800846A4EB0E0440EA03409CE770
:10048000C6F12007B34022FA07FC4CEA030C20FA1D
:1004900007F401FA06F31C43F9404FEA1C4900FA3D
:1004A00006F3B1FBF9F8200C1FFA8CFE09FB1811BA
:1004B00040EA014108FB0EF0884202FA06F20BD92D
:1004C0001CEB010108F1FF3A80F08880884240F27D
:1004D0008580A8F102086144091AA4B2B1FBF9F0C1
:1004E00009FB101144EA014100FB0EFE8E4508D9BC
:1004F0001CEB010100F1FF346CD28E456AD9023841
:10050000614440EA0840A0FB0294A1EB0E01A14225
:10051000C846A64656D353D05DB1B3EB080261EB93
:100520000E0101FA07F722FA06F3F1401F43C5E96D
:10053000007100263146BDE8F087C2F12003D840A3
:100540000CFA02FC21FA03F3914001434FEA1C47E5
:100550001FFA8CFEB3FBF7F007FB10360B0C43EAD7
:10056000064300FB0EF69E4204FA02F408D91CEB87
:10057000030300F1FF382FD29E422DD90238634485
:100580009B1B89B2B3FBF7F607FB163341EA034125
:1005900006FB0EF38B4208D91CEB010106F1FF3874
:1005A00016D28B4214D9023E6144C91A46EA00466B
:1005B00038E72E46284605E70646E3E61846F8E6FD
:1005C0004B45A9D2B9EB020864EB0C0E0138A3E746
:1005D0004646EAE7204694E74046D1E7D0467BE727
:1005E000023B614432E7304609E76444023842E79F
:1005F000704700BF30B58BB0002405940694079473
:10060000089409941B4B1A6B42F010021A631A6B80
:1006100002F010020192019A1A6B42F080021A63F2
:100620001A6B02F080020292029A1A6B42F00102E7
:100630001A631A6B02F001020392039A1A6B42F0DA
:1006400002021A631B6B03F002030493049B0A4D1E
:1006500022460421284601F093FF04230593012339
:1006600006930794089405A9284601F099FE0BB05B
:1006700030BD00BF003802400010024000B583B01A
:100680000A4B1A6B42F400121A631B6B03F400133B
:100690000193019B002211460E2000F08BFC0E20DE
:1006A00000F0BEFC03B05DF804FB00BF0038024060
:1006B00038B50D4C0D4B23600D4B63600025A560D4
:1006C0000123E36025616561A561E561256220463E
:1006D00000F00AFE2946204600F0E0FF29462046A9
:1006E00001F00AF838BD00BF0C0300200060004094
:1006F0001A09102030B589B000240494059406949A
:1007000007940194029403940E4D4FF080432B60A4
:100710005F236B60AC6042F20F73EB602C61AC61E5
:10072000284602F02FFB4FF48053049304A9284677
:1007300002F050FB0194039401A9284602F0B8FB93
:1007400009B030BD5803002008B50948094B0360C3
:100750004FF4E133436000238360C36003610C22E4
:1007600042618361C3610362436202F0CDFE08BD52
:1007700098030020004C004008B50A480A4B03606B
:100780000A4B43604FF4805383600023C3600361CE
:100790000C2242618361C3610362436202F0B4FED2
:1007A00008BD00BF1804002000780040A0860100AA
:1007B00010B586B00023019302930393049305932D
:1007C000154B5A6C42F001025A645B6C03F0010352
:1007D0000093009BBF23ADF804304FF6E85303931A
:1007E0000E4C01A9204602F0E9FE236823F08003A5
:1007F0002360A2680A4B1340A360636823F0700370
:100800006360636823F470036360A36823F080036C
:10081000A36006B010BD00BF0038024000000140D8
:10082000F8BFFEFF30B5B9B0342200212BA802F08A
:100830009BFF002426942794289429942A9490229C
:10084000214602A802F090FF204B1A6C42F0805221
:100850001A641B6C03F080530093009B1C4B1A68B6
:1008600042F440421A601B6803F440430193019B29
:1008700001232B934FF480332C93022531954FF4B1
:100880008003329308233393C023349335953695F0
:100890002BA800F05DFF02F03FF80F232693279569
:1008A00028944FF4A05329934FF480532A930621A0
:1008B00026A801F09BF9074B0293169419941E94F5
:1008C00002A801F06BFA39B030BD00BF0038024019
:1008D000007000400012020030B583B00446AC4BFB
:1008E0000360AC4B4360AC4BC363AC4B8363AC4A1B
:1008F00042231370292353704FF0FF3300930223D8
:10090000D021006800F04EFD002840F0DA80A44DB0
:10091000A44B0FCB85E80F002846FFF791FC4FF062
:10092000FF3382B229469B4802F063FD9E4B0022B2
:100930005A629D4B5A6A42F20F739A42F9D9984A09
:1009400040231370292353704FF0FF330093022389
:10095000D021206800F026FD002840F0C380904D93
:10096000904B0FCB85E80F002846FFF769FC4FF04E
:10097000FF3382B22946874802F03BFD8A4B0022B2
:100980005A62894B5A6A42F20F739A42F9D9844AE1
:1009900041231370052353704FF0FF33009302235C
:1009A000D021206800F0FEFC002840F0AC807C4D97
:1009B0007C4B0FCB85E80F002846FFF741FC4FF03A
:1009C000FF3382B22946734802F013FD764B0022B2
:1009D0005A62754B5A6A42F20F739A42F9D9704AB9
:1009E00043231370022353704FF0FF310091D02145
:1009F000206800F0D7FC002840F09680684D694BD5
:100A00000FCB85E80F002846FFF71AFC4FF0FF33A5
:100A100082B229465F4802F0ECFC634B00225A6226
:100A2000614B5A6A42F20F739A42F9D95C4A7E23AB
:100A30001370152353704FF0FF3300930223D0211E
:100A4000206800F0AFFC00287FD1554D554B0FCBEF
:100A500085E80F002846FFF7F3FB4FF0FF3382B223
:100A600029464C4802F0C5FC4FF4FA7001F0D6FF5D
:100A70004B4A7E231370112353704FF0FF330093C2
:100A80000223D021206800F08DFC00286ED1444D57
:100A9000464B2C460FCB07C423802846FFF7D0FBDC
:100AA0004FF0FF3382B229463A4802F0A2FC3E4B97
:100AB00000225A623C4B5B6AB3F5167FFAD303B04F
:100AC00030BD374D3A4B93E8070085E807002846CC
:100AD000FFF7B6FB4FF0FF3382B229462D4802F0F4
:100AE00088FC23E72E4D324B93E8070085E807008A
:100AF0002846FFF7A5FB4FF0FF3382B22946254871
:100B000002F077FC3AE7264D294B93E8070085E889
:100B100007002846FFF794FB4FF0FF3382B22946C7
:100B20001C4802F066FC51E71D4D214B93E807007D
:100B300085E807002846FFF783FB4FF0FF3382B2BA
:100B40002946144802F055FC67E7154D184B93E809
:100B5000070085E807002846FFF772FB4FF0FF33D8
:100B600082B229460B4802F044FC7DE70C4C114B45
:100B700093E8070084E807002046FFF761FB4FF089
:100B8000FF3382B22146034802F033FC8FE700BFF7
:100B90000C0300209803002040DAFF38DAAC7A3CDE
:100BA0008C02002020640008000001403C64000822
:100BB000306400084C64000808B501F011FFFFF72D
:100BC00031FEFFF717FDFFF759FDFFF771FDFFF746
:100BD00091FDFFF7B9FDFFF7CFFDFFF7E9FD4FF4FA
:100BE0007A7001F01BFF0D4A136843F00103136094
:100BF0000B48FFF771FE0B4C0B49204603F0FEF942
:100C00002046FFF71DFB4FF0FF3382B22146074815
:100C100002F0EFFB064801F045FFFEE7000001404F
:100C2000040200208C020020000000209803002015
:100C30005803002008B51E4B834200D008BD1D4B51
:100C40001B78632B04D81C4800F044F900230BE008
:100C5000184B00221A700421184801F097FCF2E7A3
:100C6000DA1E022A0ED90133052B15DC022BF7DC24
:100C7000134A02EB8302991C0F4800EB81010968BB
:100C80001160F0E70E4A02EB8302581C0A4901EB9F
:100C9000800149681160E6E74FF0FF3318220849E8
:100CA000084802F0A6FB034A137801331370C5E726
:100CB0005803002098040020040200200010024085
:100CC000740200209803002070477047FEE7FEE79B
:100CD000FEE7FEE770477047704708B501F08CFEED
:100CE00008BD000008B5024801F028FD08BD00BF9E
:100CF000AC02002008B5024801F0EEFE08BD00BFBE
:100D00005803002082B00A4B1A6C42F080521A64D9
:100D10001A6C02F080520092009A5A6C42F480429F
:100D20005A645B6C03F480430193019B02B07047EB
:100D30000038024010B588B0002303930493059354
:100D4000069307930268134B9A4201D008B010BD76
:100D5000114C236B43F002032363236B03F0020364
:100D60000193019B4FF440730393122304930123D7
:100D7000059303220692079303A9084801F010FB8C
:100D8000236C43F080732364236C03F0807302931D
:100D9000029BDBE700600040003802400004024094
:100DA0000368B3F1804F00D0704700B583B003F5FE
:100DB0000E331A6C42F001021A641B6C03F001033B
:100DC0000193019B002211461C2000F0F3F81C2027
:100DD00000F026F903B05DF804FB000010B58AB0FE
:100DE0000023059306930793089309930368324AF7
:100DF000934205D00446314A934222D00AB010BD36
:100E00002F4B1A6C42F400221A641A6C02F400226E
:100E10000192019A1A6B42F001021A631B6B03F0F4
:100E200001030293029B4FF4C053059302230693E0
:100E3000032308930623099305A9224801F0B0FA79
:100E4000DCE71F4B1A6C42F080421A641A6C02F005
:100E500080420392039A1A6B42F010021A631B6BD2
:100E600003F010030493049B4FF4C0730593022313
:100E70000693032308930823099305A9124801F058
:100E80008FFA1248124B03604FF020634360002337
:100E90008360C3604FF48062026143618361C36118
:100EA0000362436201F0E4FB18B9084BE3669C63FC
:100EB000A4E7FFF709FFF8E7004C00400078004086
:100EC000003802400000024000100240AC02002046
:100ED0005860024010B592B004460C238DF844309F
:100EE0004FF0FF330093012311AAD021006800F0D6
:100EF00059FA264B00225A62244B5B6A042BFBD919
:100F00004FF0FF3300930C2305AAD021206800F096
:100F100007FB002304E005AAD15C02AAD1540133E7
:100F20000B2BF8DD002313E012AA02EB430232F987
:100F3000402C07EE902AF8EEE77A94ED0E7A04F151
:100F4000080202EB830267EE877AC2ED007A013372
:100F5000022BE9DD002314E0DA1C12A901EB4202A6
:100F600032F9402C07EE902AF8EEE77A94ED0F7AEA
:100F700004F1140202EB830267EE877AC2ED007A75
:100F80000133022BE8DD12B010BD00BF00000140AC
:100F90000649CB6823F4E0631B041B0C000200F439
:100FA000E0600343024A1A43CA60704700ED00E064
:100FB0000000FA0500B5174BDB68C3F30223C3F149
:100FC000070CBCF1040F28BF4FF0040C03F1040E12
:100FD000BEF1060F14D9033B4FF0FF3E0EFA0CFC96
:100FE00021EA0C0199400EFA03F322EA03031943A4
:100FF000002807DB0901C9B2074B19545DF804FB4F
:101000000023E9E700F00F000901C9B2034B1954AE
:10101000F4E700BF00ED00E000E400E014ED00E0C4
:10102000002807DB00F01F02400901239340024A19
:1010300042F82030704700BF00E100E00138B0F115
:10104000807F0BD24FF0E0235861054AF02182F8EF
:1010500023100020986107221A6170470120704711
:1010600000ED00E003689A6912F0020F01D000223F
:101070009A6203689A6912F0010F03D19A6942F0EB
:1010800001029A61704730B4029D046860684FEABB
:10109000555C0CF4806C4CF07F7C4CF4583C4CF468
:1010A0007F7C4CF0030C20EA0C00C1F3090141EAFB
:1010B0000241194329430143616030BC7047F8B5D0
:1010C00005460E46174603689B6913F0100F01D1C1
:1010D0000020F8BD2B689C6914F0200F17D1B6F1E1
:1010E000FF3FF7D001F094FCC01BB04201D8002EA6
:1010F000F0D16B6C43F020036B64202385F8413002
:10110000002385F8423085F840300120E1E71022C5
:10111000DA612B682024DC612846FFF7A3FF2A68E8
:10112000536823F0FF7323F48B3323F4FF7323F00E
:10113000010353606B6C43F004036B6485F841401A
:10114000002385F8423085F840300120C1E770B5B2
:1011500004460D46164623689B6913F0020F1DD105
:10116000324629462046FFF7AAFFC8B9B5F1FF3F2E
:10117000F1D001F04DFC801BA84201D8002DEAD12E
:10118000636C43F020036364202384F84130002320
:1011900084F8423084F84030012000E0002070BD27
:1011A0000120FCE72DE9F0410646884617461D461A
:1011B0003468A46938EA04030CBF4FF0010C4FF007
:1011C000000CBC4518D1B5F1FF3FF1D001F020FC77
:1011D000069BC01AA84201D8002DE9D1736C43F0D8
:1011E00020037364202386F84130002386F84230C0
:1011F00086F84030012000E00020BDE8F08170B5A5
:1012000005460C4616462B689B6913F0200F1AD131
:10121000324621462846FFF752FFB0B901F0F8FBED
:10122000801BA04201D8002CEDD16B6C43F0200351
:101230006B64202385F84130002385F8423085F81F
:101240004030012070BD0020FCE70120FAE770B5B6
:1012500004460D46164623689B6913F0040F3ED1E1
:10126000324629462046FFF72AFF0146002838D19A
:1012700023689A6912F0200F13D101F0C9FB801B7B
:10128000A84201D8002DE6D1636C43F020036364CB
:10129000202384F84130002384F84030012108469F
:1012A00070BD9A6912F0040F02D0228D002AF6D187
:1012B0002022DA6121684B6823F0FF7323F48B331B
:1012C00023F4FF7323F001034B600023636484F86D
:1012D000412084F8423084F840300121DFE70021CA
:1012E000DDE70121DBE70000002857D010B50446F8
:1012F00090F84130002B41D0242384F841302268FB
:10130000136823F0010313606368226823F070639D
:1013100013612268936823F400439360E368012B10
:1013200031D0A368226843F404439360E368022B3E
:101330002FD0226851681A4B0B4353602268D36840
:1013400023F40043D360236962691343A1692268CF
:1013500043EA0123D360E369216A22680B431360E7
:101360002268136843F001031360002060642023A7
:1013700084F84130206384F8420010BD80F840308A
:10138000FFF7D8FCB8E7A368226843F400439360F2
:10139000CCE723684FF400625A60CAE70120704727
:1013A000008000022DE9F04782B00F460A9E90F8B7
:1013B0004110C9B2202940F0A380044690469946C6
:1013C00090F84030012B00F09F804FF0010A80F828
:1013D00040A001F01DFB05460090192352464FF432
:1013E00000412046FFF7DEFE002840F08F802123D9
:1013F00084F84130102384F8423000236364C4F839
:101400002480A4F82A906363638D9BB2FF2B0AD9D2
:10141000FF222285414B00934FF0807339462046CE
:10142000FFF731FE18E0628D92B222853B4B0093AC
:101430004FF00073D2B239462046FFF724FE0BE08E
:10144000628D92B22285002300934FF00073D2B2D6
:1014500039462046FFF717FE638D9BB2002B33D031
:101460002A4631462046FFF772FE002850D1626AB4
:10147000236812789A62636A01336362638D9BB258
:10148000013B9BB26385238D013B9BB22385628D1B
:1014900092B2002AE0D0002BDED100953346002224
:1014A00080212046FFF77EFEA0BB638D9BB2FF2B01
:1014B000C6D9FF222285002300934FF0807339465E
:1014C0002046FFF7E0FDC7E72A4631462046FFF7F2
:1014D00096FE08BB23682022DA6121684B6823F05E
:1014E000FF7323F48B3323F4FF7323F001034B606A
:1014F00084F84120002384F8423084F8403000E032
:10150000022002B0BDE8F0870220FAE70120F8E7E8
:101510000120F6E70120F4E70120F2E70020008037
:101520002DE9F04782B00F460A9E90F84110C9B2EB
:10153000202940F0A28004469046994690F8403019
:10154000012B00F09E804FF0010A80F840A001F0CE
:101550005FFA05460090192352464FF40041204699
:10156000FFF720FE002840F08E80222384F84130CF
:10157000102384F8423000236364C4F82480A4F864
:101580002A906363638D9BB2FF2B0AD9FF222285C9
:10159000414B00934FF0807339462046FFF773FDAF
:1015A00018E0628D92B222853B4B00934FF000739E
:1015B000D2B239462046FFF766FD0BE0628D92B24B
:1015C0002285002300934FF00073D2B239462046A3
:1015D000FFF759FD638D9BB2002B32D02A4631466E
:1015E0002046FFF734FE00284FD123685A6A636A09
:1015F0001A70636A01336362228D013A92B22285C6
:10160000638D9BB2013B9BB26385638D9BB2002BC4
:10161000E0D0002ADED10095334680212046FFF736
:10162000C1FDA0BB638D9BB2FF2BC7D9FF222285D2
:10163000002300934FF0807339462046FFF723FDC7
:10164000C8E72A4631462046FFF7D9FD08BB236884
:101650002022DA6121684B6823F0FF7323F48B3377
:1016600023F4FF7323F001034B6084F8412000232F
:1016700084F8423084F8403000E0022002B0BDE837
:10168000F0870220FAE70120F8E70120F6E70120C1
:10169000F4E70120F2E700BF0024008090F8413019
:1016A000DBB2202B24D190F84030012B22D0012333
:1016B00080F84030242380F841300268136823F01A
:1016C000010313600268136823F4805313600268F7
:1016D0001368194311600268136843F00103136033
:1016E000202380F84130002380F8403018467047AE
:1016F000022070470220704790F84130DBB2202B67
:1017000022D190F84030012B20D0012380F84030C6
:10171000242380F841300268136823F0010313602A
:101720000268136823F4706343EA012111600268C0
:10173000136843F001031360202380F84130002335
:1017400080F84030184670470220704702207047EA
:10175000002800F0DA8170B582B00446036813F007
:10176000010F29D0954B9B6803F00C03042B1AD072
:10177000924B9B6803F00C03082B0FD06368B3F502
:10178000803F40D0002B54D18C4B1A6822F4803219
:101790001A601A6822F480221A6039E0874B5B686D
:1017A00013F4800FEAD0854B1B6813F4003F03D07D
:1017B0006368002B00F0AB81236813F0020F74D034
:1017C0007E4B9B6813F00C0F5ED07C4B9B6803F044
:1017D0000C03082B53D0E368002B00F08980774A74
:1017E000136843F00103136001F012F90546734BCF
:1017F0001B6813F0020F72D101F00AF9401B022896
:10180000F5D9032088E16D4A136843F480331360EF
:1018100063682BB301F0FCF80546684B1B6813F4B2
:10182000003FC9D101F0F4F8401B6428F5D903202A
:1018300072E1B3F5A02F09D0604B1A6822F4803210
:101840001A601A6822F480221A60E1E75B4B1A687A
:1018500042F480221A601A6842F480321A60D7E794
:1018600001F0D6F80546554B1B6813F4003FA3D092
:1018700001F0CEF8401B6428F5D903204CE14F4B12
:101880005B6813F4800FA6D14C4B1B6813F0020F5A
:1018900003D0E368012B40F03C81484A136823F0F1
:1018A000F803216943EAC1031360236813F0080FAA
:1018B00046D0636983B3414A536F43F001035367D2
:1018C00001F0A6F805463D4B5B6F13F0020F37D1D0
:1018D00001F09EF8401B0228F5D903201CE1374A8D
:1018E000136823F0F803216943EAC1031360DCE7BE
:1018F000324A136823F00103136001F089F80546AA
:101900002E4B1B6813F0020FCFD001F081F8401B63
:101910000228F5D90320FFE0284A536F23F0010382
:10192000536701F075F80546244B5B6F13F0020F07
:1019300006D001F06DF8401B0228F5D90320EBE03A
:10194000236813F0040F7DD01C4B1B6C13F0805FD9
:101950001ED11A4B1A6C42F080521A641B6C03F0B1
:1019600080530193019B0125154B1B6813F4807F65
:1019700010D0A368012B25D0002B3BD10F4B1A6F41
:1019800022F001021A671A6F22F004021A671EE0A1
:101990000025E9E70A4A136843F48073136001F0F5
:1019A00037F80646064B1B6813F4807FE1D101F03F
:1019B0002FF8801B6428F5D90320ADE000380240E1
:1019C00000700040564A136F43F001031367A36889
:1019D00033B301F01DF80646514B1B6F13F0020F95
:1019E0002FD101F015F8801B41F288339842F3D9CA
:1019F000032091E0052B09D0494B1A6F22F0010218
:101A00001A671A6F22F004021A67E0E7444B1A6F54
:101A100042F004021A671A6F42F001021A67D6E711
:101A200000F0F6FF06463E4B1B6F13F0020F08D086
:101A300000F0EEFF801B41F288339842F3D9032077
:101A40006AE0F5B9A369002B65D0354A926802F0C7
:101A50000C02082A62D0022B19D0314A136823F0F5
:101A60008073136000F0D4FF04462D4B1B6813F005
:101A7000007F48D000F0CCFF001B0228F5D90320DE
:101A80004AE0274A136C23F080531364DAE7244AB0
:101A9000136823F08073136000F0BAFF0546204BF3
:101AA0001B6813F0007F06D000F0B2FF401B022835
:101AB000F5D9032030E0E369226A1343626A43EAFE
:101AC0008213A26A5208013A43EA0243E26A43EAF5
:101AD0000263226B43EA0273114A5360136843F0B6
:101AE0008073136000F094FF04460D4B1B6813F0E5
:101AF000007F06D100F08CFF001B0228F5D90320DF
:101B00000AE0002008E0002006E0012070470120E4
:101B100002E0012000E0002002B070BD0120FBE7E0
:101B20000038024008B52F4B9B6803F00C03082BCC
:101B300001D02D4808BD2B4B5A6802F03F025B686C
:101B400013F4800F2AD0274B5968C1F3881C4FEA41
:101B50004C11B1EB0C006EEB0E0E4FEA8E1343EA04
:101B600090638101091A63EB0E03DB0043EA5173B2
:101B7000C90011EB0C0C43F10003990200234FEA5A
:101B80008C2041EA9C51FEF7B3FB164B5B68C3F314
:101B9000014301335B00B0FBF3F0CBE7114B596815
:101BA000C1F3881C4FEA4C11B1EB0C006EEB0E0E2A
:101BB0004FEA8E1343EA90638101091A63EB0E0327
:101BC000DB0043EA5173C90011EB0C0C43F1000335
:101BD000990200234FEA8C2041EA9C51FEF788FBD2
:101BE000D3E700BF003802400024F400002800F0D2
:101BF0009F8070B50D460446514B1B6803F00F03E0
:101C00008B420BD24E4A136823F00F030B43136031
:101C1000136803F00F038B4240F08C80236813F0AD
:101C2000020F17D013F0040F04D0464A936843F410
:101C3000E0539360236813F0080F04D0414A93687F
:101C400043F4604393603F4A936823F0F003A16834
:101C50000B439360236813F0010F31D06368012BAD
:101C600020D0022B25D0374A126812F0020F63D021
:101C700034498A6822F0030213438B6000F0C8FEE7
:101C80000646304B9B6803F00C036268B3EB820F8F
:101C900016D000F0BDFE801B41F288339842F0D987
:101CA000032044E0274A126812F4003FE0D10120EB
:101CB0003DE0244A126812F0007FD9D1012036E0BD
:101CC0001F4B1B6803F00F03AB420AD91C4A136871
:101CD00023F00F032B431360136803F00F03AB4291
:101CE0002CD1236813F0040F06D0164A936823F40E
:101CF000E053E1680B439360236813F0080F07D0AB
:101D0000104A936823F46043216943EAC103936056
:101D1000FFF708FF0B4B9B68C3F303130A4AD35C1E
:101D2000D8400A4B1860002000F034FE002070BD3F
:101D3000012070470120FAE70120F8E70120F6E7CB
:101D4000003C02400038024060640008140000209B
:101D5000014B1868704700BF1400002008B5FFF75A
:101D6000F7FF044B9B68C3F38223034AD35CD8403C
:101D700008BD00BF003802407064000808B5FFF7D6
:101D8000E7FF044B9B68C3F34233034AD35CD8405C
:101D900008BD00BF0038024070640008F0B583B091
:101DA0000446066816F001060DD0B54B9A6822F479
:101DB00000029A609A68416B0A439A60436B002B59
:101DC00000F055810026256815F4002511D0AC4A95
:101DD000D2F88C3023F44013E16B0B43C2F88C3003
:101DE000E36BB3F5801F00F04481002B00F04381CA
:101DF0000025236813F4801F0FD0A14AD2F88C303D
:101E000023F44003216C0B43C2F88C30236CB3F5F0
:101E1000800F00F0328103B90125236813F0807F21
:101E200000D0012613F0200F40F02C81236813F01E
:101E3000100F0CD0924BD3F88C2022F08072C3F894
:101E40008C20D3F88C20A16B0A43C3F88C20236824
:101E500013F4804F08D08A4AD2F8903023F44033EC
:101E6000616E0B43C2F89030236813F4004F08D022
:101E7000834AD2F8903023F44023A16E0B43C2F87A
:101E80009030236813F4803F08D07D4AD2F8903018
:101E900023F44013E16E0B43C2F89030236813F42F
:101EA000003F08D0764AD2F8903023F44003216FE7
:101EB0000B43C2F89030236813F0400F08D0704AEB
:101EC000D2F8903023F00303616C0B43C2F89030DA
:101ED000236813F0800F08D0694AD2F8903023F0BD
:101EE0000C03A16C0B43C2F89030236813F4807F7D
:101EF00008D0634AD2F8903023F03003E16C0B43F2
:101F0000C2F89030236813F4007F08D05C4AD2F8FE
:101F1000903023F0C003216D0B43C2F8903023684A
:101F200013F4806F08D0564AD2F8903023F44073EF
:101F3000616D0B43C2F89030236813F4006F08D032
:101F40004F4AD2F8903023F44063A16D0B43C2F89E
:101F50009030236813F4805F08D0494AD2F890305B
:101F600023F44053E16D0B43C2F89030236813F41F
:101F7000005F08D0424AD2F8903023F44043216EEB
:101F80000B43C2F89030236813F4800F08D03C4A0A
:101F9000D2F8903023F08063A16F0B43C2F89030E9
:101FA000236813F4001F0DD0354AD2F8903023F087
:101FB0000063E16F0B43C2F89030E36FB3F1006F41
:101FC00000F0C680236813F0080F00D0012513F439
:101FD000802F08D02A4AD2F8903023F04073616FE6
:101FE0000B43C2F89030236813F4000F09D0244A41
:101FF000D2F8903023F08053D4F880100B43C2F80D
:102000009030236813F0806F09D01D4AD2F89030C9
:1020100023F00053D4F884100B43C2F890302368A7
:1020200013F0006F09D0164AD2F88C3023F00073F9
:10203000D4F888100B43C2F88C30236813F0805F0B
:1020400009D00F4AD2F88C3023F08063D4F88C107A
:102050000B43C2F88C30002E7CD12368B3F1007F93
:1020600078D0012D00F00981002003B0F0BD0126D9
:10207000A9E60126B9E60125BBE60126CBE600BFAD
:1020800000380240874B1A6C42F080521A641B6C75
:1020900003F080530193019B834A136843F48073D8
:1020A000136000F0B5FC07467F4B1B6813F4807F7C
:1020B00006D100F0ADFCC01B6428F5D90320D4E79D
:1020C000784B1B6F13F4407315D0226B02F44072EF
:1020D0009A4210D0734B1A6F22F44072196F41F478
:1020E00080311967196F21F4803119671A671B6FE6
:1020F00013F0010F12D1236B03F44072B2F5407F4D
:102100001DD0684A936823F4F813936065490B6FF8
:10211000226BC2F30B0213430B6787E600F078FCD7
:102120000746604B1B6F13F0020FE4D100F070FC08
:10213000C01B41F288339842F3D9032095E75948F0
:10214000826822F4F812594919400A438260DDE797
:10215000012537E7534A136823F08063136000F0CA
:1021600057FC06464F4B1B6813F0006F06D000F07B
:102170004FFC801B6428F5D9032076E7236813F011
:10218000010F13D0636B8BB9464AD2F88430D2F872
:102190008410606803F4403343EA801301F07061F7
:1021A0000B43A16843EA0173C2F88430236813F437
:1021B000002F03D0E26BB2F5801F06D013F4801F0E
:1021C0001ED0236CB3F5800F1AD1364AD2F8843072
:1021D000D2F88410606803F4403343EA8013E06867
:1021E00043EA006301F0E0410B43C2F88430D2F8C7
:1021F0008C3023F01F03616A01390B43C2F88C3025
:10220000236813F0807F11D0264AD2F88400D2F8D8
:102210008410666823691B0443EA861300F070602B
:10222000034301F0E0410B43C2F88430236813F00C
:10223000007F0DD0626823691B0443EA8213E268C1
:1022400043EA0263A26843EA0273164AC2F8843082
:10225000144A136843F08063136000F0D9FB06460C
:10226000104B1B6813F0006F7FF4FBAE00F0D0FB47
:10227000801B6428F4D90320F7E60A4A136823F088
:102280008053136000F0C4FB0546064B1B6813F037
:10229000005F0DD000F0BCFB401B6428F5D9032083
:1022A000E3E600BF0038024000700040FFFCFF0F73
:1022B000236813F4002F01D0E26B22B113F4801FC6
:1022C0001DD0236CDBB9354AD2F88830D2F888109B
:1022D000606903F4403343EA8013A06943EA006372
:1022E00001F0E0410B43C2F88830D2F88C3023F47F
:1022F000F853A16A013943EA0123C2F88C302368FC
:1023000013F4001F03D0E36FB3F1006F31D02368E3
:1023100013F0080F19D0214AD2F88810D2F888306B
:10232000606903F4403343EA801301F070610B43AA
:10233000E16943EA0173C2F88830D2F88C3023F4A3
:102340004033E16A0B43C2F88C30144A136843F0FF
:102350008053136000F05CFB0446104B1B6813F0C5
:10236000005F19D100F054FB001B6428F5D903204D
:102370007BE60A4AD2F88800D2F888106569236A99
:102380001B0443EA851300F07060034301F0E04151
:102390000B43C2F88830BAE7002066E600380240F6
:1023A00000230F2B00F2E280F0B583B03AE009225F
:1023B00000E00022AA40324302346D4D45F824204B
:1023C0006C4A14686FEA0C0224EA0C054E6816F495
:1023D000803F01D04CEA0405664C2560646802EA3F
:1023E00004054E6816F4003F01D04CEA0405614C28
:1023F0006560A46802EA04054E6816F4801F01D0E7
:102400004CEA04055B4CA560E46822404D6815F475
:10241000001F01D04CEA0402564CE26001330F2B3E
:1024200000F2A28001229A400C6804EA020C32EA0F
:102430000404F3D14C68122C18BF022C10D1DD0813
:10244000083550F8257003F00704A6000F24B440A7
:1024500027EA040E0C69B44044EA0E0440F8254013
:1024600006684FEA430E032404FA0EF4E54326EA15
:1024700004064C6804F0030404FA0EF434430460C8
:102480004C68661E112C18BF012E01D9122C0FD1D9
:1024900086682E40CC6804FA0EF4344384604468A5
:1024A00024EA02024C68C4F300149C4014434460C4
:1024B000C26815408A6802FA0EF22A43C2604A686E
:1024C00012F0805FAAD02C4A546C44F480445464C7
:1024D000526C02F480420192019A9C08A51C244A85
:1024E00052F8256003F0030295000F22AA4026EA65
:1024F0000206224A90423FF45CAF02F580629042AD
:1025000022D002F58062904220D002F58062904293
:102510001ED002F5806290421CD002F5806290428B
:102520001AD002F58062904218D002F58062904283
:1025300016D002F58062904214D002F5806290427B
:102540003FF435AF0A2235E7012233E7022231E7B3
:1025500003222FE704222DE705222BE7062229E795
:10256000072227E7082225E703B0F0BD704700BF28
:1025700000380140003C01400038024000000240A9
:102580000AB181617047090481617047436931EA8A
:10259000030301D081617047090481617047000025
:1025A00010B40168CAB2103A0A4BA3FB02431B09DC
:1025B000094CE35CC3655F2A07D9084B0B40043321
:1025C0008365806D5DF8044B7047044B0B40836559
:1025D000F7E700BFABAAAAAA5864000800FCFFFFF7
:1025E000836A826992B9012B0AD0022B02D00BB107
:1025F00000207047C36A13F0807F28D10020704705
:10260000C36AB3F1C07F24D000207047B2F5005FE9
:1026100009D0022B25D9032B25D1C36A13F0807F63
:1026200023D100207047032B03D8DFE803F0140404
:10263000140A00207047C36A13F0807F0DD1002078
:102640007047C36AB3F1C07F09D0002070470120F2
:10265000704701207047012070470120704701201A
:10266000704701207047002070470120704700002C
:1026700070B5044600F0CCF9002C5BD00546002371
:1026800084F83430022384F835302268136823F04C
:102690000103136023681A6812F0010F0AD000F0DA
:1026A000B7F9431B052BF5D920236365032084F874
:1026B000350070BD1A68204810406168A2680A435E
:1026C000E1680A4321690A4361690A43A1690A432F
:1026D000E1690A43216A0A430243616A04291ED060
:1026E0001A602668756925F00705636A1D43042B87
:1026F00007D1A36A1D43E36A1BB12046FFF770FFB1
:1027000090B975612046FFF74BFFE26D3F23934080
:10271000836000206065012384F83530C9E7E16AF1
:10272000206B01430A43DBE740236365012084F803
:102730003500BEE70120BCE73F8010E0F0B583B074
:10274000044600230193724B1D68724BA3FB0535B1
:10275000AD0A876D3E68C26D08239340334210D0A6
:1027600003681A6812F0040F0BD01A6822F00402F2
:102770001A60C26D08239340BB60436D43F00103B0
:102780004365E26D01239340334209D022685269C8
:1027900012F0800F04D0BB60636D43F002036365E9
:1027A000E26D04239340334209D02268126812F08C
:1027B000020F04D0BB60636D43F004036365E26DF8
:1027C00010239340334224D02268126812F0080F7D
:1027D0001FD0BB6023681A6812F4802F0DD01B68CD
:1027E00013F4002F04D1236C9BB12046984710E0CE
:1027F000A36C73B1204698470BE01A6812F4807FEF
:1028000003D11A6822F008021A60236C0BB120462B
:102810009847E26D20239340334255D022681268D6
:1028200012F0100F50D0BB6094F83530DBB2052B9E
:102830000ED023681A6812F4802F33D01B6813F46B
:10284000002F2AD1636C002B3ED0204698473BE0F6
:102850002268136823F0160313602268536923F07B
:1028600080035361236CA3B12268136823F008032B
:102870001360E26D3F239340BB60002384F8343043
:10288000012384F83530236D002B3FD02046984734
:102890003CE0A36C002BE7D1EBE7E36BA3B1204650
:1028A000984711E01A6812F4807F09D11A6822F063
:1028B00010021A60002384F83430012384F8353084
:1028C000E36B0BB120469847636DFBB1636D13F06A
:1028D000010F17D0052384F835302268136823F0E0
:1028E00001031360019B01330193AB4204D82368B9
:1028F0001B6813F0010FF5D1002384F83430012355
:1029000084F83530E36C0BB12046984703B0F0BD36
:1029100014000020B5814E1B10B582B01B4B1A6C01
:1029200042F080521A641B6C03F080530193019BA8
:10293000174A136843F48033136000F069F80446C3
:10294000134B5B6813F4803F08D100F061F8001B63
:10295000B0F57A7FF4D9032002B010BD0C4A136899
:1029600043F40033136000F053F80446084B5B68EF
:1029700013F4003F07D100F04BF8001BB0F57A7F4D
:10298000F4D90320E8E70020E6E700BF0038024062
:102990000070004010B504460E4B18784FF47A735F
:1029A000B3FBF0F30C4A1068B0FBF3F0FEF746FB04
:1029B00068B90F2C01D901200AE0002221464FF00E
:1029C000FF30FEF7F7FA054B1C60002000E0012005
:1029D00010BD00BF0F0000201400002010000020D8
:1029E00008B50320FEF7D4FA0020FFF7D3FFFEF767
:1029F00089F9002008BD0000034A1168034B1B78C9
:102A00000B441360704700BF9C0400200F0000209F
:102A1000014B1868704700BF9C04002038B504467D
:102A2000FFF7F6FF0546B4F1FF3F02D0044B1B78D9
:102A30001C44FFF7EDFF401BA042FAD338BD00BF96
:102A40000F00002010B4036A046A24F00104046239
:102A5000846924F0F00C4CEA021223F00A030B43C1
:102A6000826103625DF8044B704710B4046A24F07D
:102A7000100404628469036A24F4704C4CEA023244
:102A800023F0A00343EA0113826103625DF8044B63
:102A90007047836823F070030B4343F007038360A0
:102AA000704700000268D36843F00103D3600268F6
:102AB0009168064B0B40062B18BFB3F5803F03D03F
:102AC000136843F001031360002070470700010002
:102AD000704770477047704710B5044603681A691D
:102AE00012F0020F11D0DA6812F0020F0DD06FF061
:102AF00002021A610123037703689B6913F0030F35
:102B000079D0FFF7E6FF0023237723681A6912F0D4
:102B1000040F12D0DA6812F0040F0ED06FF0040226
:102B20001A610223237723689B6913F4407F68D0DE
:102B30002046FFF7CEFF0023237723681A6912F09F
:102B4000080F12D0DA6812F0080F0ED06FF00802EA
:102B50001A61042323772368DB6913F0030F57D02E
:102B60002046FFF7B6FF0023237723681A6912F087
:102B7000100F12D0DA6812F0100F0ED06FF01002A2
:102B80001A61082323772368DB6913F4407F46D05A
:102B90002046FFF79EFF0023237723681A6912F06F
:102BA000010F03D0DA6812F0010F3FD123681A69D0
:102BB00012F0800F03D0DA6812F0800F3DD1236845
:102BC0001A6912F4807F03D0DA6812F0800F3BD1CB
:102BD00023681A6912F0400F03D0DA6812F0400F30
:102BE00039D123681A6912F0200F03D0DA6812F085
:102BF000200F37D110BDFFF76BFF2046FFF76AFFAC
:102C000081E72046FFF764FF2046FFF763FF92E766
:102C10002046FFF75DFF2046FFF75CFFA3E7204655
:102C2000FFF756FF2046FFF755FFB4E76FF00102AC
:102C30001A612046FDF7FEFFB8E76FF080021A61C7
:102C4000204600F06AF9BAE76FF480721A612046F4
:102C500000F064F9BCE76FF040021A612046FFF70C
:102C60003AFFBEE76FF020021A61204600F054F9E7
:102C7000C0E7000030B503683B4A904214BF4FF0F4
:102C8000000E4FF0010EB0F1804F14BF72464EF0AF
:102C90000102AAB9354CA04214BF00240124344DCE
:102CA000A8420DD064B904F1804404F58234A042F6
:102CB00014BF0024012405F50065A84200D01CB112
:102CC00023F070034C682343002A33D1274A9042F3
:102CD00014BF00220122264CA0422BD052BB02F18D
:102CE000804202F58232904214BF0022012204F594
:102CF0000064A0421ED0EAB91E4A904214BF0022CE
:102D0000012204F59A34A04214D09AB91A4A90428A
:102D100014BF0022012204F50064A0420AD04AB97F
:102D2000164A904214BF00220122A4F59634A04214
:102D300000D022B123F4407CCB6843EA0C0323F09B
:102D400080034A69134303608A68C2620A68826228
:102D50000B4A904214BF73464EF001030BB10B694E
:102D600003630123436130BD0000014000080040BF
:102D700000040040004401400018004000200040D2
:102D800000040140B0B110B5044690F83D3063B185
:102D9000022384F83D30214651F8040BFFF76AFF07
:102DA000012384F83D30002010BD80F83C30FDF751
:102DB000F7FFEDE70120704710B4846824F47F4CDE
:102DC00042EA03220A4342EA0C0282605DF8044BA5
:102DD0007047000090F83C30012B64D010B50446D9
:102DE000012380F83C30022380F83D30026890686F
:102DF0002E4B034093600B68602B40D022D8402BB1
:102E000047D00BD9502B0ED1CA6849682068FFF70C
:102E100019FE50212068FFF73CFE04E0202B0CD067
:102E200008D9302B09D0012384F83D30002084F8E4
:102E30003C0010BD0BB1102BF5D119462068FFF7EF
:102E400028FEF0E7702B0ED0B3F5005FEBD1CB6816
:102E50004A6889682068FFF7AFFF2268936843F4E7
:102E600080439360DFE7CB684A6889682068FFF792
:102E7000A3FF2268936843F077039360D3E7CA689F
:102E800049682068FFF7F1FD60212068FFF701FE27
:102E9000C9E7CA6849682068FFF7D4FD4021206867
:102EA000FFF7F7FDBFE70220704700BF8800FEFF75
:102EB00090F83C30012B28D070B4012380F83C30CE
:102EC000022380F83D3003685A689C68104E114D0B
:102ED000AB4218BFB34203D122F470024D682A43BB
:102EE00022F070020D682A4324F0800C896841EAC0
:102EF0000C015A6003689960012380F83D3000237B
:102F000080F83C30184670BC70470220704700BF04
:102F10000000014000040140704770477047000006
:102F200038B5044683680269134342691343C26992
:102F3000134301680868934A024013430B602268F8
:102F4000536823F44053E1680B435360A269236A3A
:102F50001A4321688B6823F4306313438B60236822
:102F6000894A934219D0894A934229D0884A934288
:102F70003ED0884A934262D0874A934271D0874AB2
:102F8000934200F08380864A934200F09480854A01
:102F9000934200F0A58010253AE0834BD3F890309F
:102FA00003F00303032B09D8DFE803F00204AE06A5
:102FB00001252DE004252BE0082529E0102527E038
:102FC000794BD3F8903003F00C030C2B0ED8DFE8CC
:102FD00003F0070D0D0D090D0D0D9D0D0D0D0B00D1
:102FE000002515E0042513E0082511E010250FE069
:102FF0006D4BD3F8903003F03003202B00F0888025
:1030000019D8002B00F08680102B40F08580042515
:10301000E369B3F5004F00F0AB80082D00F2388172
:10302000DFE815F0070110011A013601230136010E
:10303000360136012D01302B70D10825E8E75A4BB7
:10304000D3F8903003F0C003802B69D005D8002B53
:1030500068D0402B68D10425DAE7C02B66D108255B
:10306000D6E7514BD3F8903003F44073B3F5007FAB
:103070005ED006D8002B5DD0B3F5807F5CD10425EF
:10308000C6E7B3F5407F59D10825C1E7464BD3F8D1
:10309000903003F44063B3F5006F51D006D8002B95
:1030A00050D0B3F5806F4FD10425B1E7B3F5406F31
:1030B0004CD10825ACE73C4BD3F8903003F4405397
:1030C000B3F5005F44D006D8002B43D0B3F5805F42
:1030D00042D104259CE7B3F5405F3FD1082597E72F
:1030E000314BD3F8903003F44043B3F5004F37D061
:1030F00005D8BBB3B3F5804F36D1042588E7B3F5C7
:10310000404F33D1082583E7022581E702257FE779
:1031100002257DE700257BE7102579E7102577E775
:10312000022575E7002573E7102571E710256FE785
:1031300002256DE700256BE7102569E7102567E795
:10314000022565E7012563E7102561E710255FE7A4
:1031500002255DE700255BE7102559E7102557E7B5
:10316000022555E7002553E7102551E710254FE7C5
:10317000082D4DD8DFE805F01A242F4C384C4C4C64
:10318000430000BFF369FFEF00100140004400401E
:1031900000480040004C0040005000400014014036
:1031A00000780040007C004000380240FEF7D6FD69
:1031B0006268530803EB4003B3FBF2F39BB229E0D0
:1031C000FEF7DCFD6268530803EB4003B3FBF2F348
:1031D0009BB200251EE06268374B03EB5203B3FB42
:1031E000F2F39BB2002515E0FEF79CFC62685308E1
:1031F00003EB4003B3FBF2F39BB200250AE06268E5
:10320000530803F58033B3FBF2F39BB2002501E0D2
:1032100001250023A3F110014FF6EF72914242D82D
:103220009AB222F00F02C3F3420313432268D36021
:103230003CE0FEF793FD626800EB5203B3FBF2F350
:103240009BB227E0FEF79AFD626800EB5203B3FBE6
:10325000F2F39BB200251DE06268184B03EB5203AA
:10326000B3FBF2F39BB2002514E0FEF75BFC62684F
:1032700000EB5203B3FBF2F39BB200250AE0626855
:10328000530803F50043B3FBF2F39BB2002501E0C2
:1032900001250023A3F110014FF6EF72914204D8EB
:1032A0002268D36002E0012500E0012500232366A7
:1032B0006366284638BD00BF0048E8010024F400DA
:1032C000436A13F0010F06D00268536823F40033F9
:1032D000816A0B435360436A13F0020F06D0026801
:1032E000536823F48033C16A0B435360436A13F07D
:1032F000040F06D00268536823F48023016B0B434C
:103300005360436A13F0080F06D00268536823F431
:103310000043416B0B435360436A13F0100F06D018
:103320000268936823F48053816B0B439360436A74
:1033300013F0200F06D00268936823F40053C16B8A
:103340000B439360436A13F0400F0AD0026853683E
:1033500023F48013016C0B435360036CB3F5801F9F
:103360000BD0436A13F0800F06D00268536823F431
:103370000023816C0B43536070470268536823F449
:10338000C003416C0B435360EBE72DE9F84305465E
:103390000F4616469946DDF820802C68E46937EA26
:1033A00004030CBF4FF0010C4FF0000CB4451DD1CD
:1033B000B8F1FF3FF1D0FFF72BFBA0EB0900404530
:1033C00002D8B8F1000FE8D12A68136823F4D0734B
:1033D00013602A68936823F00103936020236B67CE
:1033E000AB67002385F87030032000E00020BDE8C3
:1033F000F8832DE9F04182B01E46436F202B55D152
:1034000004460D469046002A18BF002952D090F875
:103410007030012B50D0012380F870300023C36737
:1034200021234367FFF7F4FA0746A4F85080A4F875
:103430005280A368B3F5805F02D04FF000080FE020
:10344000236913B34FF000080AE015F8012B236835
:103450009A62B4F8522092B2013A92B2A4F8522081
:10346000B4F852309BB29BB100963B4600228021BB
:103470002046FFF78AFF08BB002DE6D138F8023B53
:103480002268C3F308039362E3E7A8460025E7E751
:1034900000963B46002240212046FFF776FF78B990
:1034A00020236367002384F8703000E0022002B01C
:1034B000BDE8F0810120FAE70220F8E70320F6E7F3
:1034C0000320F4E710B582B004460023C367FFF77A
:1034D0009FFA23681B6813F0080F07D12023636746
:1034E000A367002084F8700002B010BD6FF07E4327
:1034F0000093034600224FF400112046FFF745FFDA
:103500000028EBD00320EFE768B310B50446436F03
:1035100003B3242363672268136823F00103136055
:103520002046FFF7FDFC012813D0636ABBB922686F
:10353000536823F4904353602268936823F02A036E
:1035400093602268136843F0010313602046FFF77D
:10355000B9FF10BD80F87030FDF740FCD9E7204678
:10356000FFF7AEFEE3E701207047000010B40F4AFA
:10357000D2F8883043F47003C2F888300C4B1968D5
:1035800041F001011960002098601C680949214040
:10359000196009495960196821F480211960D860BF
:1035A0004FF0006393605DF8044B704700ED00E05E
:1035B00000380240FFFFF6FE1030002430B50368EB
:1035C0003B4A904214BF4FF0000E4FF0010EB0F195
:1035D000804F14BF72464EF00102AAB9354CA0428A
:1035E00014BF00240124344DA8420DD064B904F165
:1035F000804404F58234A04214BF0024012405F560
:103600000065A84200D01CB123F070034C6823432E
:10361000002A33D1274A904214BF00220122264CAF
:10362000A0422BD052BB02F1804202F5823290427E
:1036300014BF0022012204F50064A0421ED0EAB9A2
:103640001E4A904214BF0022012204F59A34A0427F
:1036500014D09AB91A4A904214BF0022012204F5EC
:103660000064A0420AD04AB9164A904214BF002210
:103670000122A4F59634A04200D022B123F4407C6C
:10368000CB684CEA030303608A68C2620A888262DC
:103690000D4A904214BF73464EF001030BB10B7CF0
:1036A0000363436943F001034361002030BD00BF61
:1036B00000000140000800400004004000440140B8
:1036C000001800400020004000040140DFF834D022
:1036D000002103E00C4B5B58435004310B480C4B6A
:1036E00042189A42F6D30B4A02E0002342F8043B08
:1036F000094B9A42F9D3FFF739FF00F011F8FDF7B3
:103700005BFA704700000820A46800080000002051
:10371000E8010020E8010020B4040020FEE70000DA
:1037200070B50D4D0D4C641BA4100026A64209D1A6
:103730000B4D0C4C02F066FE641BA4100026A64242
:1037400005D170BD55F8043B98470136EEE755F8B2
:10375000043B98470136F2E79C6800089C68000823
:103760009C680008A068000802440346934200D108
:10377000704703F8011BF9E7F0B52DED028BB0EEB1
:10378000408B85B017460D9D0C9E18EE902A25F0B3
:103790002005002AB6BF2D220022B1EE408B462D17
:1037A0000C461A7004D0452D00D10134022100E0EE
:1037B000032103AB019302AB009322463346B0EEE4
:1037C000480B00F0C9FC472D01D1FB071AD5462D47
:1037D00000EB04020CD10378302B07D1B5EE408BFF
:1037E000F1EE10FA1CBFC4F10104346033681A44CE
:1037F000B5EE408BF1EE10FA08BF03923021039B27
:10380000934207D3039B0E9A1B1A136005B0BDECBD
:10381000028BF0BD5C1C03941970F0E7F7B503460A
:103820000029B8BF494203F8022BB4BF2D222B2236
:10383000092942702ADD0DF10704A4460A27A6468D
:103840000A4691FBF7F607FB16153035632A04F19B
:10385000FF340EF8015C3146F1DC3031AEF1020587
:1038600004F8011C441C294661450AD30DF10902E4
:10387000A2EB0E02654588BF00221344181A03B05C
:10388000F0BD11F8012B04F8012FEDE730233031A2
:103890008370C170031DF1E72DE9F04F8BB00C462A
:1038A000DDF8508016461F46054601F0C5F9D0F8F0
:1038B00000B05846FCF7C4FC00230893D8F8003049
:1038C00094F818902268073323F0070303F10801E6
:1038D000C8F800108246D3E90001C4E912019FED47
:1038E000987B94ED120BB0EEC06BB4EE476BF1EE2B
:1038F00010FA24DDB5EEC00BF1EE10FA02D52D233F
:1039000084F84330904B9148B9F1470F94BF9846E3
:1039100080460323236122F00402002322600493E3
:103920000097334609AA2146284600F0D3F9013012
:1039300040F08A804FF0FF300BB0BDE8F08FB4EE5E
:10394000400BF1EE10FA09D710EE903A002BBCBFF5
:103950002D2384F843307E487E4BD5E7636809F019
:10396000DF010491591C3CD10623636000230393BB
:1039700008ABCDE9019342F4806207AB6168009324
:1039800022600DF11B032846FFF7F6FE049B079902
:10399000472B804608D1C81C02DB6368994241DD91
:1039A000A9F102095FFA89F9B9F1650F20D8013947
:1039B0004A4604F150000791FFF730FF089A04903F
:1039C0001318012A236102DC2268D20701D50133D2
:1039D00023619DF81B30002BA2D02D2384F84330A7
:1039E0009EE704994729C1D1002BBFD10123BCE731
:1039F000B9F1660F18D1002963680BDD216113B995
:103A00002268D00702D501330B4423610023A1654E
:103A10000493DEE713B92268D20701D50233F4E735
:103A20000123F2E74FF06709089B994205DB236801
:103A30002161D807EAD54B1CE7E70029D4BFC1F1C3
:103A4000020201221344E0E723685A0507D42369E0
:103A5000424631462846B84701302AD16AE7B9F1D3
:103A6000650F40F2E28094ED127BB5EE407BF1EE03
:103A700010FA33D1384A012331462846B84701307D
:103A80003FF458AFDDE907239A4202DB2368D807E9
:103A90000FD553465A4631462846B84701303FF4C1
:103AA00049AF4FF0000804F11A09089B013B434558
:103AB00009DC23689B0700F10881E068099B9842B4
:103AC000B8BF184638E701234A4631462846B8476A
:103AD00001303FF42FAF08F10108E6E7079B002B08
:103AE0003CDC1D4A012331462846B84701303FF4EB
:103AF00021AFDDE90723134302D12368D907D8D5C5
:103B000053465A4631462846B84701303FF412AF73
:103B10004FF0000904F11A0A079B5B424B4501DC98
:103B2000089B95E70123524631462846B8470130A5
:103B30003FF400AF09F10109EEE700BFAFF30080E9
:103B4000FFFFFFFFFFFFEF7F7C6400088064000839
:103B500088640008846400088C640008089AA36DD7
:103B60009A42A8BF1A46002A914638DC00230593E2
:103B700029EAE97904F11A02A36D05990493A3EBEC
:103B800009038B4233DCDDE907239A423CDB2368DF
:103B9000DA0739D4089B049A07999A1AA3EB01090A
:103BA0009145A8BF9146B9F1000F35DC4FF00008F0
:103BB00029EAE97904F11A0ADDE907239B1AA3EB44
:103BC000090343457FF775AF012352463146284626
:103BD000B84701303FF4AEAE08F10108ECE71346F8
:103BE000314642462846B8470130BFD1A2E60123FC
:103BF000314628460492B84701303FF49BAE059BFE
:103C0000049A01330593B7E753465A46314628468E
:103C1000B8470130BED18DE6049A4B464244314646
:103C20002846B8470130C1D184E6089A012A01DC50
:103C3000DB0737D50123424631462846B8470130D5
:103C40003FF478AE53465A4631462846B8470130CD
:103C50003FF470AE94ED127BB5EE407BF1EE10FABE
:103C60001BD0089B08F10102013B31462846B847AA
:103C700001300ED15EE601234A4631462846B84758
:103C800001303FF457AE08F10108089B013B434562
:103C9000F1DC049B04F15002DBE64FF0000804F174
:103CA0001A09F2E701234246DFE701234A4631467B
:103CB0002846B84701303FF43DAE08F10108E368FB
:103CC00009995B1A4345F0DCF7E64FF0000804F170
:103CD0001909F4E72DE9F047164699468A680B69F9
:103CE000DDF820809342B8BF1346336091F843203B
:103CF00007460C460AB1013333602368990642BF78
:103D0000336802333360256815F0060506D104F1E7
:103D1000190AE36832689B1AAB4226DC94F8432008
:103D2000131E226818BF012392062BD404F143020C
:103D300049463846C04701301ED02368E5683268DE
:103D400003F00603042B08BFAD1AA36822690CBF59
:103D500025EAE57500259342C4BF9B1AED1800269D
:103D60001A34B5421AD1002008E0012352464946D0
:103D70003846C047013003D14FF0FF30BDE8F0872F
:103D80000135C6E7E1185A1C302081F8430022446F
:103D900094F8451082F843100233C7E70123224606
:103DA00049463846C0470130E6D00136D9E7000021
:103DB0002DE9FF470F7E0C9D782F914680460C46DB
:103DC0009A4601F1430207D8622F0AD8002F00F06B
:103DD000D880582F00F0A38004F1420584F8427087
:103DE0003AE0A7F16303152BF6D801A151F823F0AF
:103DF000493E00085D3E0008D93D0008D93D000855
:103E0000D93D0008D93D00085D3E0008D93D0008B5
:103E1000D93D0008D93D0008D93D0008693F000898
:103E20008D3E00084B3F0008D93D0008D93D0008F1
:103E30008B3F0008D93D00088D3E0008D93D0008A1
:103E4000D93D0008533F00082B681A1D1B682A60E3
:103E500004F1420584F842300123A3E02068296878
:103E6000060601F104030AD50E682B60002E03DA62
:103E70002D23764284F843305E480A2319E00E6809
:103E80002B6010F0400F18BF36B2EFE72B682068A8
:103E9000191D2960010601D51E6802E04606FBD502
:103EA0001E8854486F2F0CBF08230A23002184F872
:103EB00043106568A560002DA2BF216821F00401B0
:103EC00021600EB9002D4DD01546B6FBF3F103FB72
:103ED0001167C75D05F8017D3746BB420E46F4D930
:103EE000082B0BD12368DE0708D523696168994246
:103EF000DEBF302305F8013C05F1FF35521B22617E
:103F0000CDF800A04B4603AA21464046FFF7E2FE4B
:103F100001304CD14FF0FF3004B0BDE8F087354898
:103F200081F845702968236851F8046B29601D06E3
:103F300014D5DF0744BF43F0200323601EB9236874
:103F400023F0200323601023B0E7236843F020030D
:103F500023607823284884F84530E3E7590648BFB2
:103F6000B6B2E6E71546BBE72B6826686169181DFF
:103F7000286035061B6801D5196002E07006FBD584
:103F80001980002323611546BAE72B681A1D2A60A1
:103F90001D68626800212846FCF75AF908B1401BE9
:103FA000606063682361002384F84330A8E72369D5
:103FB0002A4649464046D0470130ABD023689B078C
:103FC00013D4E068039B9842B8BF1846A4E70123C6
:103FD000324649464046D04701309BD00135E36820
:103FE00003995B1AAB42F2DCEBE7002504F11906FA
:103FF000F5E700BF8E6400089F6400080EB400B5AA
:104000009CB01DAB029006906FF0004109480791EB
:104010000491094953F8042B05910068019302A902
:1040200001F0BAFA029B00221A701CB05DF804EB92
:1040300003B07047180000200802FFFF2DE9F74F7A
:1040400003690C69A3420746C0F28180013C01F17B
:10405000140800F1140505EB8403019358F824308B
:1040600055F8242001339A424FEA840B08EB840967
:10407000B2FBF3F631D34FF0000E4046AC46F246A9
:1040800050F8042B93B206FB03E34FEA134E9BB2A6
:10409000AAEB0303120CDCF800A006FB02E213FA01
:1040A0008AF34FEA124E1FFA82FADCF80020CAEBBC
:1040B000124202EB23429BB243EA024381454CF891
:1040C000043B4FEA224ADBD255F80B302BB9019B57
:1040D000043B9D421A462ED33C61384601F048F815
:1040E000002824DB013628464FF0000C58F8042B3A
:1040F000D0F800E093B2ACEB0303120C13FA8EF38A
:10410000C2EB1E4202EB23429BB243EA0243C1458B
:1041100040F8043B4FEA224CE8D255F8242005EB46
:10412000840322B9043B9D421A460AD33C613046BF
:1041300003B0BDE8F08F1268043B002ACCD1013CEB
:10414000C7E71268043B002AF0D1013CEBE70020EE
:10415000EEE70000000000002DE9F04F2DED028B8E
:10416000456A91B08DED020B59EC108B1C9C0691A9
:10417000064608920C9375B9102000F061FD0246C6
:10418000706220B9AA4BEA21AA4801F015FBC0E9E8
:1041900001550560C560736A196851B15A684A6073
:1041A000012393408B60304600F0A0FD736A00222B
:1041B0001A60B9F10003BBBF23F00043039300234F
:1041C0000122ACBF236022609B4B039CA3431CD104
:1041D0000C9A42F20F731360C4F3130353EA0803FB
:1041E00000F0FE841D9B63B9944B1FE0944B019338
:1041F00008331D9A1360019811B0BDEC028BBDE825
:10420000F08F8E4B01930333F3E79DED028BB5EEF8
:10421000408BF1EE10FA0BD10C9A012313601D9B19
:10422000002B00F0DA8487481860431E0193E2E710
:104230000FA90EAA3046B0EE480B01F03FF8C4F3C8
:104240000A5105460E98002946D018EE904AC4F34C
:10425000130453EC182B44F07F5343F44013A1F2A2
:10426000FF31002443EC162BB7EE087B9FED6A5B11
:1042700036EE477B9FED6A6BA7EE056B9FED6A5BA1
:1042800007EE901AB8EEE74BB0EE467BA4EE057B46
:10429000FDEEC76BB5EEC07BF1EE10FA16EE90BAEC
:1042A0000A9408D5B8EEE66BB4EE476BF1EE10FA5F
:1042B00018BF0BF1FF3BBBF1160F2FD8624B03EB7E
:1042C000CB0393ED007BB4EEC78BF1EE10FA01D572
:1042D0000BF1FF3B002322E00F99014401F232432E
:1042E000202BC1BFC3F1400304FA03F301F21244CF
:1042F00028FA04F8D6BFC3F1200343EA080808FAF5
:1043000003F807EE908AB8EE677B013917EE904A02
:1043100053EC172BA4F1F8730124A3E701230B93AB
:10432000431A5A1E45BFC3F101030493002300231F
:10433000059254BF04930593BBF1000F18DB059B56
:10434000CDF824B05B4405930023069A092A49D886
:10435000052AC4BF043A0692069AA2F10202CCBF13
:1043600000240124032A48D8DFE802F00B2E2C3A5F
:10437000049B0022A3EB0B0304930992CBF10003EF
:10438000E3E700220792089A002A39DC4FF0010A7D
:10439000D1465246CDF820A0776A002179600420EA
:1043A00000F1140C944579682FD930460D9300F034
:1043B0005DFC0D9B01900246002849D1234B4FF430
:1043C000D571E1E60122DDE700220792089A0BEBA6
:1043D000020A0AF101094A46012AB8BF0122DBE7B5
:1043E0000122F2E701240022CDE906244FF0FF3A32
:1043F0000021D14612220891CEE701220792F5E76B
:10440000DDF820A0D1465246C6E701317960400070
:10441000C6E700BFAFF3008061436F63A787D23F59
:10442000B3C8608B288AC63FFB799F501344D33FA3
:10443000BD640008D46400080000F07FB96400087F
:10444000B06400088D640008086600085165000823
:10445000726A01991160B9F10E0F6CD8002C6AD004
:10446000BBF1000F40F3A080C1490BF00F0201EB3C
:10447000C2021BF4807F92ED007B4FEA2B1100F00B
:104480008780BC4A92ED086B88EE066B8DED026B5F
:1044900001F00F010322B74800297BD19DED026B8B
:1044A00086EE077B8DED027B0B99002900F0A28040
:1044B000B7EE006B9DED027BB4EEC67BF1EE10FA19
:1044C00040F19880B9F1000F00F09480BAF1000F2C
:1044D0002FDDB2EE046B27EE067B8DED027B0BF138
:1044E000FF37013250469DED026BB1EE0C5B07EEDB
:1044F000902AB8EEE77BA7EE065B15EE904A52ECE9
:10450000151BA4F15072002877D1B1EE047B36EE72
:10451000476B42EC171BB4EEC76BF1EE10FA00F3D9
:104520006482B1EE477BB4EEC76BF1EE10FA00F196
:1045300059828DED028B0F9A002AC0F21D81BBF1CA
:104540000E0F00F319818A4B03EBCB0393ED006B45
:10455000089B002B80F2B780B9F1000F00F3B38005
:1045600040F04082B1EE047B26EE076B9DED027BAE
:10457000B4EEC76BF1EE10FA4C464F4680F216824D
:10458000DDF80480312308F8013B0BF1010B12E246
:10459000022280E7CC0704D590ED006B013227EEB4
:1045A000067B4910083077E722D0CBF10001704A32
:1045B00001F00F0002EBC00292ED007B28EE077BBA
:1045C0008DED027B6B4809110024022229B9002CD1
:1045D0003FF46AAF8DED027B66E7CF0705D590ED1E
:1045E000006B0132012427EE067B49100830EDE70D
:1045F000022259E75F46484675E742EC171B5C4AC2
:1046000002EBC00212ED024B019A1418079A52B342
:10461000B6EE003BB7EE002BDDF8048083EE045BC2
:10462000B2EE043B35EE477BFDEEC64B14EE902A0E
:10463000B8EEE45B303236EE456BB4EEC76BF1EEAC
:1046400010FA08F8012B39D432EE465BB4EEC75BA2
:10465000F1EE10FA72D4A0453FF46BAF27EE037B66
:1046600026EE036BE0E7DDF8048027EE047B2146AD
:10467000B2EE043BFDEEC64B14EE902A303208F841
:10468000012BA045B8EEE45B36EE456B18D1B6EED3
:10469000005B37EE054BB4EEC46BF1EE10FA4DDC67
:1046A00035EE477BB4EEC76BF1EE10FA7FF541AF04
:1046B0008846013918F8013C302BF9D0BB462AE076
:1046C00026EE036BD6E79DED027BB2EE044BDDF8E0
:1046D000048087EE065BBDEEC55B15EE103A303305
:1046E00008F8013B019BA8EB03039945B8EEC53BD5
:1046F000A3EE467B33D137EE077BB4EEC67BF1EEFB
:1047000010FA1ADCB4EE467BF1EE10FA03D115EE86
:10471000103AD90711D42946304600F0E7FA0023B1
:104720000C9A88F800300BF1010313601D9B002BDD
:104730003FF461ADC3F800805DE55F4643469846AF
:1047400013F8012D392A06D1019A9A42F7D101991D
:10475000302201370A701A7801321A70AEE727EE5C
:10476000047BB5EE407BF1EE10FAB2D1D3E700BF87
:1047700008660008E06500080799002900F0D1806C
:104780000699012900F3B4800A99002900F0AC8051
:1047900002F23342DDF810801C460A93049B134456
:1047A0000493059B012113443046059300F056FB0A
:1047B0000A9B0746B8F1000F0DDD059A002A0ADDB5
:1047C00042450499A8BF4246891A04910599A8EB6D
:1047D00002088A1A059203B3079A002A00F0A680FD
:1047E000002C13DD3946224630460D9300F0F6FBCF
:1047F0002A4601460746304600F046FB29460A9005
:10480000304600F073FA0A9A0D9B15461A1B04D025
:104810002946304600F0E2FB05460121304600F013
:104820001DFB099B002B044640F382801A4601467B
:10483000304600F0D3FB069B012B04467BDD0023B2
:104840000A93226904EB8202106900F0B7FAC0F102
:104850002000059B184410F01F0000F08D80C0F16F
:104860002002042A40F38680C0F11C00049B03440C
:104870000493059B034480440593049B002B05DDB2
:1048800029461A46304600F003FC0546059B002BDE
:1048900005DD21461A46304600F0FAFB04460B9B24
:1048A000002B6BD02146284600F062FC002865DA18
:1048B000002329460A22304600F03AFA079B0BF102
:1048C000FF3B0546002B00F09281394600230A2267
:1048D000304600F02DFABAF1000F074600F38E8043
:1048E000069B022B51DC89E00E9AC2F1360251E799
:1048F00009F1FF34A342BFBF099AE31AD218134645
:10490000B7BF09931C1B23460024B9F1000FB5BFA4
:10491000049ADDF81080A2EB09084A46B8BF0022CD
:104920003BE7DDF81080079F1C4643E71A466FE718
:10493000069B012B18DC029BB3B9039BC3F3130244
:10494000A2B923F00042120D12058AB1049B013373
:104950000493059B0133059301230A93099B002BC4
:104960007FF46FAF012074E70023F6E7029BF4E7C2
:104970000A92F3E781D010461C3077E7B9F1000FB7
:1049800037DC069B022B34DDCA46BAF1000F0DD18D
:10499000214653460522304600F0CAF90146044636
:1049A000284600F0E5FB00283FF7EAAD089BDDF85C
:1049B00004806FEA030B4FF000092146304600F0F7
:1049C00095F9002F3FF4A7AEB9F1000F05D0B94516
:1049D00003D04946304600F089F93946304600F0A8
:1049E00085F998E600242746E0E7BB4604460746DB
:1049F000C6E5079BCA46002B00F00081B8F1000F06
:104A000005DD39464246304600F042FB07460A9B28
:104A1000002B5DD07968304600F028F9804628B92F
:104A2000824B024640F2EA21FFF7AEBB3A690232FE
:104A3000920007F10C010C3000F00AF90122414606
:104A4000304600F025FB019B01330493019B534446
:104A50000893029B03F00103B94607930746049BA2
:104A60002146013B28460293FFF7E8FA034630331C
:104A7000059049462846099300F07AFB3A4682465B
:104A80002146304600F090FBC268099B80460ABB75
:104A90000146284600F06CFB099B02464146304621
:104AA000CDE9093200F022F9069B0A9ADDF8108060
:104AB00043EA0201079B0B43099B0DD1392B29D0F7
:104AC000BAF1000F01DD059B3133029A137074E7D0
:104AD0003846B8E70122E1E7BAF1000F06DB069994
:104AE00041EA0A0A07995AEA010120D1002AECDDBD
:104AF000294601223046049300F0CAFA21460546B1
:104B000000F036FB0028049B02DCDED1DA07DCD59E
:104B1000392BD8D1029A3923137043469846013B6A
:104B200018F8012C392A51D001321A7045E7002AB1
:104B300003DD392BEED00133C7E7049A089902F858
:104B4000013C8A422BD0294600230A22304600F03D
:104B5000EFF8B94505464FF000034FF00A02494609
:104B6000304607D100F0E4F881460746049B013344
:104B7000049374E700F0DCF83946814600230A22EA
:104B8000304600F0D5F80746F0E7BAF1000F019A79
:104B9000CCBFD0464FF0010890444FF000092946A1
:104BA00001223046029300F073FA2146054600F0D8
:104BB000DFFA0028B1DC02D1029BDB07ADD443460B
:104BC000984613F8012D302AFAD0F6E6019A9A4257
:104BD000A4D10BF1010B312378E7154BFFF726BB6E
:104BE0001D9B002B7FF402AB124BFFF71FBBBAF1EA
:104BF000000F03DC069B022B3FF7C7AEDDF80480F5
:104C000021462846FFF71AFA00F1300308F8013B65
:104C1000019AA8EB02029245B7DD294600230A2239
:104C2000304600F085F80546EAE700BF5165000808
:104C30008C640008B0640008004870476C010020D4
:104C4000024B0146186800F0F1BB00BF18000020BD
:104C50000A44914200F1FF3300D1704710B511F8BA
:104C6000014B03F8014F9142F9D110BD70B5466A6E
:104C700004460D4676B91020FFF7E2FF0246606257
:104C800020B9184B1848662100F096FDC0E901666E
:104C90000660C660666AF36883B1636ADB6853F8CE
:104CA0002500B8B9012101FA05F6721D92002046CF
:104CB00000F060FB60B1C0E901560EE02122042142
:104CC000204600F057FB636AF060DB68002BE4D1FC
:104CD000002070BD026843F825200023C0E903339B
:104CE000F7E700BFBD6400086265000870B5466A5A
:104CF00005460C4676B91020FFF7A2FF024668620F
:104D000020B9094B09488A2100F056FDC0E9016627
:104D10000660C6603CB16B6A6268DB6853F82210BB
:104D2000216043F8224070BDBD6400086265000840
:104D30002DE9F0410D6907460C461E4601F1140CA1
:104D40000020DCF8003099B202FB01611E0C0B0C54
:104D500002FB063389B2013001EB034185424CF876
:104D6000041B4FEA1346ECDC0EB3A368AB4219DC1C
:104D7000616838460131FFF779FF804628B902465D
:104D80000C4B0D48B52100F017FD2269023204F1E9
:104D90000C0192000C30FFF75BFF21463846FFF70D
:104DA000A5FF444604EB850301355E61256120467D
:104DB000BDE8F0815165000862650008030C1B0422
:104DC000D3B90004102310F07F4F04BF0002083352
:104DD00010F0704F04BF0001043310F0404F04BFC7
:104DE00080000233002805DB10F0804F03F101033F
:104DF00008BF2023184670470023E4E7036813F038
:104E0000070201460BD0DA0723D4980749BF5B0895
:104E10009B0801200B605CBF0B600220704798B2BA
:104E2000A8B91B0C1020DAB20AB908301B0A1A07FD
:104E300004BF1B0904309A0704BF9B080230DA073D
:104E400003D45B0800F1010005D00B6070471046E9
:104E5000E9E70020704720207047000010B50C469D
:104E60000121FFF703FF024628B9054B05484FF41F
:104E7000A07100F0A1FC01234461036110BD00BFDB
:104E800051650008626500082DE9F04F91460A69F6
:104E9000D9F810309A42B8BF0B460C46BCBF4C46FE
:104EA00099462769D9F810A0A368616807EB0A063C
:104EB000B34285B0B8BF0131FFF7D8FE30B9024622
:104EC000444B454840F25D1100F076FC00F11405BA
:104ED00005EB86082B460022434521D304F1140339
:104EE00003EB870709F1140303EB8A0202923A1BD2
:104EF000153A22F00302043204F115018F4238BF43
:104F000004220192029A03939A420CD8002E03DDE8
:104F100058F8043D002B5AD0066105B0BDE8F08F6B
:104F200043F8042BD8E7B3F800A0BAF1000F24D05F
:104F300004F1140EA9464FF0000C5EF8042BD9F8CA
:104F400000101FFA82FB89B20AFB0B114FEA124BC9
:104F5000D9F8002061444FEA124C0AFB0BC202EB65
:104F6000114289B241EA0241774549F8041B4FEAF0
:104F7000124CE2D8019A45F802C0039AB2F80290A6
:104F80000433B9F1000F20D0296804F1140CAE46A7
:104F90004FF0000ABCF800B0BEF8022009FB0B225B
:104FA000924489B241EA0A414EF8041B5CF8042B92
:104FB000BEF80010120C09FB021101EB1A41674503
:104FC0004FEA114AE6D8019AA95004359AE7013E02
:104FD0009CE700BF51650008626500082DE9F843B1
:104FE000154612F0030206460F4607D0254C013A3B
:104FF000002354F82220FFF79BFE0746AD103DD05A
:10500000746A7CB91020FFF71BFE0246706228B953
:105010001D4B1E484FF4D77100F0CEFBC0E9014490
:105020000460C460D6F82480D8F808404CB940F237
:1050300071213046FFF712FF0023C8F8080004462C
:1050400003604FF00009EB070AD539462246304687
:10505000FFF71AFF394680463046FFF747FE4746BE
:105060006D100BD0206838B9224621463046FFF734
:105070000BFF2060C0F800900446E4E73846BDE826
:10508000F88300BFD0660008BD64000862650008B0
:105090002DE9F0470C464968236903EB6218A368C1
:1050A000074691464FEA621A08F10106B3420BDB4C
:1050B0003846FFF7DBFD054648B902462A4B2B4828
:1050C00040F2D91100F078FB01315B00EEE70023DC
:1050D00000F1140100F110021846534537DB206936
:1050E0002AEAEA7A04F1140319F01F0901EB8A0194
:1050F00003EB80002FD0C9F1200E8A464FF0000C40
:105100001A6802FA09F242EA0C024AF8042B53F830
:10511000042B984222FA0EFCF2D8031B153B23F015
:105120000303043304F11502904238BF042341F80D
:1051300003C0BCF1000F01D008F10206013E384661
:105140002E612146FFF7D2FD2846BDE8F08742F8E0
:10515000040F0133C1E7043953F8042B41F8042F3D
:105160009842F9D8EAE700BF516500086265000877
:1051700030B502690C69121B0ED100F11403143111
:1051800003EB840001EB840150F8045D51F8044DF9
:10519000A54203D005D30122104630BD8342F3D38C
:1051A000FAE74FF0FF32F7E72DE9F84F0C460646D5
:1051B000114620469046FFF7DBFF051E10D1294619
:1051C0003046FFF753FD30B93A4B024640F23221E8
:1051D000394800F0F1FA0123C0E90435BDE8F88F41
:1051E000A4BF4346A0463046D8F80410A6BF1C46CC
:1051F00000250125FFF73AFD20B92E4B02464FF45A
:105200001071E5E7D8F810702669C56004F114093B
:1052100008F1140500F1140E05EB870C09EB860666
:1052200008F11002F246002159F8043B52F804BF7D
:105230001FFA83F811FA8BF11B0CA1EB0808C3EBE2
:105240001B4303EB28431FFA88F819144E4548EA1C
:1052500003434AF8043BE7D8331B153B23F0030311
:1052600004331534A64238BF04231D4473449E46BC
:105270002E4666450ED30CF10302521B22F00302A8
:10528000033DAC4538BF00221A4452F8043D7BB1BF
:105290000761A3E756F8048B11FA88F2141404EBA3
:1052A000184492B242EA04424EF8042B2114E0E77B
:1052B000013FEAE751650008626500082DE9F74300
:1052C0008946012157EC106B9046FFF7CFFC04464E
:1052D00030B90246254B264840F20A3100F06CFAFC
:1052E000C7F30A55C7F3130335BB002E019328D02B
:1052F00068460096FFF782FD009900B3019AC0F15D
:10530000200302FA03F30B43C24063610192019B45
:10531000A361002B14BF022201222261D5B1A5F2A4
:1053200033450544C9F80050C0F13500C8F8000005
:10533000204603B0BDE8F08343F48013D5E76161F4
:10534000E5E701A8FFF75AFD019B63610122226195
:105350002030E3E704EB8203A0F23240C9F80000FA
:105360001869FFF72BFDC0EB4210DFE7516500081D
:105370006265000813B54A431146019200F056F8E1
:10538000044618B1019A0021FEF7EEF9204602B05A
:1053900010BD000037B5002944D051F8043C0190FD
:1053A000002BA1F10404B8BFE41800F061FA1E4A12
:1053B0000198136833B96360146003B0BDE83040EE
:1053C00000F05CBAA34208D9256861198B4201BF7D
:1053D00019685B6849192160EDE71A465B680BB1F3
:1053E000A342FAD911685518A5420BD1246821446B
:1053F0005418A3421160E0D11C685B6853602144DB
:105400001160DAE702D90C230360D6E72568611939
:105410008B4204BF19685B68636004BF491921604F
:105420005460CAE703B030BDA0040020F8B5CD1C1D
:1054300025F0030508350C2D38BF0C25002D064638
:1054400001DBA94203D90C2333600020F8BD00F032
:105450000FFA21490A6814469CB9204F3B6823B9CA
:105460002146304600F098F938602946304600F071
:1054700093F9431C23D10C233360304600F0FEF92E
:10548000E3E723685B1B17D40B2B03D923601C4471
:10549000256004E06368A2420CBF0B605360304695
:1054A00000F0ECF904F10B00231D20F00700C21AF4
:1054B000CCD01B1AA350C9E722466468CCE7C41CB1
:1054C00024F00304A042E3D0211A304600F064F92E
:1054D0000130DDD1CFE700BFA0040020A4040020EC
:1054E0002DE9F0478E689E4282460C4690461F4644
:1054F00038D88A8912F4906F32D025680969A5EBF3
:105500000109656905EB450505EBD57501334B448C
:105510006D109D4238BF1D46530531D52946FFF712
:1055200085FF064650B90C23CAF80030A38943F022
:105530004003A3814FF0FF30BDE8F08721694A4660
:10554000FFF786FBA38923F4906343F08003A381D4
:10555000266165614E44A5EB09052660A5603E46BF
:10556000BE4200D93E4620683246414600F066F908
:10557000A3689B1BA3602368334423600020DBE700
:105580002A4600F081F906460028E1D121695046FB
:10559000FFF700FFC7E700002DE9F04F98468B8921
:1055A0001B069DB007460D4614460ED50B6963B920
:1055B0004021FFF73BFF2860286120B90C233B60A6
:1055C0004FF0FF30D1E040236B610023099320238B
:1055D0008DF82930CDF80C803023DFF8A8818DF8C4
:1055E0002A304FF0010923469A4613F8012B0AB1DD
:1055F000252AF9D1BAEB040B0BD05B46224629468B
:105600003846FFF76DFF013000F0AA80099A5A442E
:1056100009929AF80030002B00F0A28000234FF08E
:10562000FF32CDE905230AF1010A049307938DF8AF
:1056300053301A935446052214F8011B5148FAF7C7
:1056400007FE049AD8B9D00644BF20238DF8533002
:10565000110744BF2B238DF853309AF800302A2BC2
:1056600015D0079A544600204FF00A0C214611F835
:10567000013B303B092B4ED9B0B1079214E0A0EBAF
:10568000080309FA03F313430493A246D2E7039BEA
:10569000191D1B680391002BBBBF5B4242F0020245
:1056A00007930793B8BF049223782E2B0CD163780D
:1056B0002A2B35D1039B1A1D1B680392002BB8BF00
:1056C0004FF0FF3302340593DFF8C8A0217803229E
:1056D0005046FAF7BDFD40B14023A0EB0A0003FAA3
:1056E00000F0049B03430134049314F8011B264883
:1056F0008DF828100622FAF7ABFD002838D0234B8E
:105700001BBB039B073323F0070308330393099B59
:105710003344099367E70CFB02320C460120A5E7EE
:1057200000230134059319464FF00A0C204610F867
:10573000012B303A092A03D9002BC5D00591C3E7C4
:105740000CFB012104460123F0E703AB00932A463A
:105750000F4B04A93846FEF79FF8421C0646D6D1E7
:10576000AB895B063FF52CAF09981DB0BDE8F08F03
:1057700003AB00932A46064B04A93846FEF718FBF4
:10578000EBE700BFDC660008E66600089938000811
:10579000E1540008E266000838B5064D00230446CF
:1057A00008462B6000F016FE431C02D12B6803B1A3
:1057B000236038BDA80400201FB514461A46094BC3
:1057C0001B680546D8684CB1074B0091CDE9013400
:1057D00006492B4600F00EF800F0A4FA044B1C46D4
:1057E000F3E700BF18000020ED660008FA66000825
:1057F000286700080EB403B5014603AB054853F80B
:10580000042B0068019300F08FF802B05DF804EB00
:1058100003B070471800002082B001B901A942B15D
:105820004BB113780B601278101E18BF012002B024
:1058300070471046FBE76FF00100F8E7884210B5AB
:1058400001EB020402D98442234607D8431EA14239
:1058500008D011F8012B03F8012FF8E702440146A4
:105860008A4200D110BD13F8014D02F8014DF7E74F
:10587000014800F017BC00BFAC040020014800F054
:1058800012BC00BFAC040020F8B5074614460E4613
:1058900021B9BDE8F8401146FFF7C8BD22B9FFF7AE
:1058A00079FD25462846F8BD00F064FCA0420FD2E1
:1058B00021463846FFF7BAFD05460028F2D03146AA
:1058C0002246FFF7C5F931463846FFF763FDE9E7A1
:1058D0003546E7E79368013B002B10B4936008DA84
:1058E0009469A34201DB0A2903D15DF8044B00F05F
:1058F0004BB91368581C1060197008465DF8044BCA
:105900007047F8B506460F461446D518AC4201D18B
:10591000002007E014F8011B3A463046FFF7DAFF93
:10592000431CF3D1F8BD00002DE9F04F0D469DB0AA
:1059300014469846064618B183690BB900F014FB6B
:10594000894B9D421BD175686B6ED90705D4AB8915
:105950009A0502D4A86D00F0A5FBAB891B0701D501
:105960002B69EBB92946304600F06EF9C0B16B6E79
:10597000DC070ED54FF0FF301DB0BDE8F08F7B4B3C
:105980009D4201D1B568DFE7794B9D4208BFF568BC
:10599000DAE7AB899805EDD4A86D00F084FBE9E760
:1059A0000023099320238DF82930CDF80C80302373
:1059B000DFF8C0818DF82A304FF0010923469A465E
:1059C00013F8012B0AB1252AF9D1BAEB040B0BD03D
:1059D0005B46224629463046FFF793FF013000F030
:1059E000AA80099A5A4409929AF80030002B00F0D4
:1059F000A28000234FF0FF32CDE905230AF1010A0E
:105A0000049307938DF853301A935446052214F8E3
:105A1000011B5848FAF71CFC049AD8B9D10644BFB8
:105A200020238DF85330130744BF2B238DF85330B8
:105A30009AF800302A2B15D0079A544600204FF0D0
:105A40000A0C214611F8013B303B092B4ED9B0B16D
:105A5000079214E0A0EB080309FA03F3134304933D
:105A6000A246D2E7039B191D1B680391002BBBBF05
:105A70005B4242F0020207930793B8BF0492237877
:105A80002E2B0CD163782A2B35D1039B1A1D1B6852
:105A90000392002BB8BF4FF0FF3302340593DFF8B9
:105AA000E4A0217803225046FAF7D2FB40B140230C
:105AB000A0EB0A0003FA00F0049B034301340493B3
:105AC00014F8011B2C488DF828100622FAF7C0FBA9
:105AD00000283FD0294B1BBB039B073323F0070350
